{
  "_format": "hh-sol-artifact-1",
  "contractName": "TroveManager",
  "sourceName": "contracts/TroveManager.sol",
  "abi": [
    {
      "inputs": [
        {
          "internalType": "address",
          "name": "supply",
          "type": "address"
        },
        {
          "internalType": "address",
          "name": "uniUtils",
          "type": "address"
        }
      ],
      "stateMutability": "nonpayable",
      "type": "constructor"
    },
    {
      "anonymous": false,
      "inputs": [
        {
          "indexed": false,
          "internalType": "address",
          "name": "token",
          "type": "address"
        },
        {
          "indexed": false,
          "internalType": "bool",
          "name": "isAllowed",
          "type": "bool"
        }
      ],
      "name": "CollateralTokenChange",
      "type": "event"
    },
    {
      "anonymous": false,
      "inputs": [
        {
          "indexed": false,
          "internalType": "address",
          "name": "lender",
          "type": "address"
        },
        {
          "indexed": false,
          "internalType": "uint256",
          "name": "offerId",
          "type": "uint256"
        },
        {
          "indexed": false,
          "internalType": "uint256",
          "name": "loanId",
          "type": "uint256"
        },
        {
          "indexed": false,
          "internalType": "address",
          "name": "borrower",
          "type": "address"
        }
      ],
      "name": "NewLoan",
      "type": "event"
    },
    {
      "anonymous": false,
      "inputs": [
        {
          "indexed": true,
          "internalType": "address",
          "name": "previousOwner",
          "type": "address"
        },
        {
          "indexed": true,
          "internalType": "address",
          "name": "newOwner",
          "type": "address"
        }
      ],
      "name": "OwnershipTransferred",
      "type": "event"
    },
    {
      "anonymous": false,
      "inputs": [
        {
          "indexed": false,
          "internalType": "address",
          "name": "token",
          "type": "address"
        },
        {
          "indexed": false,
          "internalType": "bool",
          "name": "isAllowed",
          "type": "bool"
        }
      ],
      "name": "SupplyTokenChanged",
      "type": "event"
    },
    {
      "inputs": [
        {
          "internalType": "address",
          "name": "token",
          "type": "address"
        },
        {
          "internalType": "uint256",
          "name": "collateralFactorBPS",
          "type": "uint256"
        },
        {
          "internalType": "uint24",
          "name": "oraclePoolFee",
          "type": "uint24"
        }
      ],
      "name": "addCollateralToken",
      "outputs": [],
      "stateMutability": "nonpayable",
      "type": "function"
    },
    {
      "inputs": [
        {
          "internalType": "address",
          "name": "token",
          "type": "address"
        },
        {
          "internalType": "uint256",
          "name": "borrowFactorBPS",
          "type": "uint256"
        },
        {
          "internalType": "uint24",
          "name": "oraclePoolFee",
          "type": "uint24"
        }
      ],
      "name": "addSupplyToken",
      "outputs": [],
      "stateMutability": "nonpayable",
      "type": "function"
    },
    {
      "inputs": [
        {
          "internalType": "address",
          "name": "token",
          "type": "address"
        },
        {
          "internalType": "uint256",
          "name": "amount",
          "type": "uint256"
        }
      ],
      "name": "deposit",
      "outputs": [],
      "stateMutability": "nonpayable",
      "type": "function"
    },
    {
      "inputs": [
        {
          "internalType": "address",
          "name": "account",
          "type": "address"
        }
      ],
      "name": "getAccountCollateralValueEth",
      "outputs": [
        {
          "internalType": "uint256",
          "name": "",
          "type": "uint256"
        },
        {
          "internalType": "uint256",
          "name": "",
          "type": "uint256"
        }
      ],
      "stateMutability": "view",
      "type": "function"
    },
    {
      "inputs": [
        {
          "internalType": "address",
          "name": "account",
          "type": "address"
        }
      ],
      "name": "getAccountLoansValueEth",
      "outputs": [
        {
          "internalType": "uint256",
          "name": "",
          "type": "uint256"
        },
        {
          "internalType": "uint256",
          "name": "",
          "type": "uint256"
        }
      ],
      "stateMutability": "view",
      "type": "function"
    },
    {
      "inputs": [
        {
          "internalType": "address",
          "name": "token",
          "type": "address"
        },
        {
          "internalType": "uint256",
          "name": "amount",
          "type": "uint256"
        }
      ],
      "name": "getCollateralValueEth",
      "outputs": [
        {
          "internalType": "uint256",
          "name": "",
          "type": "uint256"
        },
        {
          "internalType": "uint256",
          "name": "",
          "type": "uint256"
        }
      ],
      "stateMutability": "view",
      "type": "function"
    },
    {
      "inputs": [
        {
          "internalType": "address",
          "name": "account",
          "type": "address"
        },
        {
          "internalType": "uint256",
          "name": "index",
          "type": "uint256"
        }
      ],
      "name": "getDepositByIndexForAccount",
      "outputs": [
        {
          "internalType": "address",
          "name": "",
          "type": "address"
        },
        {
          "internalType": "uint256",
          "name": "",
          "type": "uint256"
        }
      ],
      "stateMutability": "view",
      "type": "function"
    },
    {
      "inputs": [
        {
          "internalType": "address",
          "name": "account",
          "type": "address"
        },
        {
          "internalType": "uint256",
          "name": "extraAmount",
          "type": "uint256"
        },
        {
          "internalType": "address",
          "name": "token",
          "type": "address"
        }
      ],
      "name": "getHealthFactorBPS",
      "outputs": [
        {
          "internalType": "uint256",
          "name": "",
          "type": "uint256"
        }
      ],
      "stateMutability": "view",
      "type": "function"
    },
    {
      "inputs": [
        {
          "internalType": "address",
          "name": "account",
          "type": "address"
        },
        {
          "internalType": "uint256",
          "name": "index",
          "type": "uint256"
        }
      ],
      "name": "getLoanIdByIndexForAccount",
      "outputs": [
        {
          "internalType": "uint256",
          "name": "",
          "type": "uint256"
        }
      ],
      "stateMutability": "view",
      "type": "function"
    },
    {
      "inputs": [
        {
          "internalType": "address",
          "name": "token",
          "type": "address"
        },
        {
          "internalType": "uint256",
          "name": "amount",
          "type": "uint256"
        }
      ],
      "name": "getLoanValueEth",
      "outputs": [
        {
          "internalType": "uint256",
          "name": "",
          "type": "uint256"
        },
        {
          "internalType": "uint256",
          "name": "",
          "type": "uint256"
        }
      ],
      "stateMutability": "view",
      "type": "function"
    },
    {
      "inputs": [
        {
          "internalType": "address",
          "name": "account",
          "type": "address"
        }
      ],
      "name": "getNumDepositsForAccount",
      "outputs": [
        {
          "internalType": "uint256",
          "name": "",
          "type": "uint256"
        }
      ],
      "stateMutability": "view",
      "type": "function"
    },
    {
      "inputs": [
        {
          "internalType": "address",
          "name": "account",
          "type": "address"
        }
      ],
      "name": "getNumLoansForAccount",
      "outputs": [
        {
          "internalType": "uint256",
          "name": "",
          "type": "uint256"
        }
      ],
      "stateMutability": "view",
      "type": "function"
    },
    {
      "inputs": [
        {
          "internalType": "address",
          "name": "token",
          "type": "address"
        },
        {
          "internalType": "uint256",
          "name": "amount",
          "type": "uint256"
        }
      ],
      "name": "getOracleValueEth",
      "outputs": [
        {
          "internalType": "uint256",
          "name": "",
          "type": "uint256"
        }
      ],
      "stateMutability": "view",
      "type": "function"
    },
    {
      "inputs": [
        {
          "internalType": "address",
          "name": "account",
          "type": "address"
        }
      ],
      "name": "liquidateAccount",
      "outputs": [],
      "stateMutability": "nonpayable",
      "type": "function"
    },
    {
      "inputs": [
        {
          "components": [
            {
              "internalType": "address",
              "name": "owner",
              "type": "address"
            },
            {
              "internalType": "address",
              "name": "token",
              "type": "address"
            },
            {
              "internalType": "uint256",
              "name": "offerId",
              "type": "uint256"
            },
            {
              "internalType": "uint256",
              "name": "nonce",
              "type": "uint256"
            },
            {
              "internalType": "uint256",
              "name": "minLoanAmount",
              "type": "uint256"
            },
            {
              "internalType": "uint256",
              "name": "amount",
              "type": "uint256"
            },
            {
              "internalType": "uint256",
              "name": "interestRateBPS",
              "type": "uint256"
            },
            {
              "internalType": "uint256",
              "name": "expiration",
              "type": "uint256"
            },
            {
              "internalType": "uint256",
              "name": "minLoanDuration",
              "type": "uint256"
            },
            {
              "internalType": "uint256",
              "name": "maxLoanDuration",
              "type": "uint256"
            }
          ],
          "internalType": "struct LoanOffer",
          "name": "loanOffer",
          "type": "tuple"
        },
        {
          "internalType": "bytes",
          "name": "signature",
          "type": "bytes"
        },
        {
          "internalType": "uint256",
          "name": "amount",
          "type": "uint256"
        },
        {
          "internalType": "uint256",
          "name": "duration",
          "type": "uint256"
        }
      ],
      "name": "openLoan",
      "outputs": [],
      "stateMutability": "nonpayable",
      "type": "function"
    },
    {
      "inputs": [
        {
          "components": [
            {
              "internalType": "address",
              "name": "owner",
              "type": "address"
            },
            {
              "internalType": "address",
              "name": "token",
              "type": "address"
            },
            {
              "internalType": "uint256",
              "name": "offerId",
              "type": "uint256"
            },
            {
              "internalType": "uint256",
              "name": "nonce",
              "type": "uint256"
            },
            {
              "internalType": "uint256",
              "name": "minLoanAmount",
              "type": "uint256"
            },
            {
              "internalType": "uint256",
              "name": "amount",
              "type": "uint256"
            },
            {
              "internalType": "uint256",
              "name": "interestRateBPS",
              "type": "uint256"
            },
            {
              "internalType": "uint256",
              "name": "expiration",
              "type": "uint256"
            },
            {
              "internalType": "uint256",
              "name": "minLoanDuration",
              "type": "uint256"
            },
            {
              "internalType": "uint256",
              "name": "maxLoanDuration",
              "type": "uint256"
            }
          ],
          "internalType": "struct LoanOffer[]",
          "name": "loanOffers",
          "type": "tuple[]"
        },
        {
          "internalType": "bytes[]",
          "name": "signatures",
          "type": "bytes[]"
        },
        {
          "internalType": "uint256",
          "name": "amount",
          "type": "uint256"
        },
        {
          "internalType": "uint256",
          "name": "duration",
          "type": "uint256"
        },
        {
          "internalType": "bool",
          "name": "allowPartialExecution",
          "type": "bool"
        }
      ],
      "name": "openLoans",
      "outputs": [],
      "stateMutability": "nonpayable",
      "type": "function"
    },
    {
      "inputs": [],
      "name": "owner",
      "outputs": [
        {
          "internalType": "address",
          "name": "",
          "type": "address"
        }
      ],
      "stateMutability": "view",
      "type": "function"
    },
    {
      "inputs": [
        {
          "internalType": "address",
          "name": "token",
          "type": "address"
        }
      ],
      "name": "removeCollateralToken",
      "outputs": [],
      "stateMutability": "nonpayable",
      "type": "function"
    },
    {
      "inputs": [
        {
          "internalType": "address",
          "name": "token",
          "type": "address"
        }
      ],
      "name": "removeSupplyToken",
      "outputs": [],
      "stateMutability": "nonpayable",
      "type": "function"
    },
    {
      "inputs": [],
      "name": "renounceOwnership",
      "outputs": [],
      "stateMutability": "nonpayable",
      "type": "function"
    },
    {
      "inputs": [
        {
          "internalType": "uint256",
          "name": "loanId",
          "type": "uint256"
        },
        {
          "internalType": "uint256",
          "name": "newAmount",
          "type": "uint256"
        }
      ],
      "name": "repayLoan",
      "outputs": [],
      "stateMutability": "nonpayable",
      "type": "function"
    },
    {
      "inputs": [
        {
          "internalType": "address",
          "name": "newOwner",
          "type": "address"
        }
      ],
      "name": "transferOwnership",
      "outputs": [],
      "stateMutability": "nonpayable",
      "type": "function"
    },
    {
      "inputs": [
        {
          "internalType": "address",
          "name": "token",
          "type": "address"
        },
        {
          "internalType": "uint256",
          "name": "newAmount",
          "type": "uint256"
        }
      ],
      "name": "withdraw",
      "outputs": [],
      "stateMutability": "nonpayable",
      "type": "function"
    }
  ],
  "bytecode": "0x608060405261012c600d60006101000a81548163ffffffff021916908363ffffffff1602179055503480156200003457600080fd5b50604051620038a7380380620038a783398181016040528101906200005a9190620002cb565b6200007a6200006e6200019560201b60201c565b6200019d60201b60201c565b80600260006101000a81548173ffffffffffffffffffffffffffffffffffffffff021916908373ffffffffffffffffffffffffffffffffffffffff16021790555081600160006101000a81548173ffffffffffffffffffffffffffffffffffffffff021916908373ffffffffffffffffffffffffffffffffffffffff160217905550600160009054906101000a900473ffffffffffffffffffffffffffffffffffffffff1673ffffffffffffffffffffffffffffffffffffffff1663a76ad686306040518263ffffffff1660e01b815260040162000159919062000323565b600060405180830381600087803b1580156200017457600080fd5b505af115801562000189573d6000803e3d6000fd5b50505050505062000340565b600033905090565b60008060009054906101000a900473ffffffffffffffffffffffffffffffffffffffff169050816000806101000a81548173ffffffffffffffffffffffffffffffffffffffff021916908373ffffffffffffffffffffffffffffffffffffffff1602179055508173ffffffffffffffffffffffffffffffffffffffff168173ffffffffffffffffffffffffffffffffffffffff167f8be0079c531659141344cd1fd0a4f28419497f9722a3daafe3b4186f6b6457e060405160405180910390a35050565b600080fd5b600073ffffffffffffffffffffffffffffffffffffffff82169050919050565b6000620002938262000266565b9050919050565b620002a58162000286565b8114620002b157600080fd5b50565b600081519050620002c5816200029a565b92915050565b60008060408385031215620002e557620002e462000261565b5b6000620002f585828601620002b4565b92505060206200030885828601620002b4565b9150509250929050565b6200031d8162000286565b82525050565b60006020820190506200033a600083018462000312565b92915050565b61355780620003506000396000f3fe608060405234801561001057600080fd5b506004361061014d5760003560e01c80638da5cb5b116100c3578063d60d5acf1161007c578063d60d5acf146103d7578063e218ffd314610407578063f2fde38b14610423578063f3fef3a31461043f578063f4079b241461045b578063f520328c146104775761014d565b80638da5cb5b146102dc57806394f9059f146102fa5780639e160c1014610316578063a9bc00a614610346578063af7b01ba14610376578063bdb689f0146103a65761014d565b80635d527115116101155780635d527115146102075780636e6d978414610238578063715018a6146102695780637492833d146102735780638a700b53146102a45780638ac5d4a3146102c05761014d565b806304dcf01914610152578063230540191461018257806329e9a2f21461019e5780632aaa5038146101ba57806347e7ef24146101eb575b600080fd5b61016c60048036038101906101679190612428565b610493565b604051610179919061246e565b60405180910390f35b61019c600480360381019061019791906124f0565b6104e3565b005b6101b860048036038101906101b391906124f0565b6106d0565b005b6101d460048036038101906101cf9190612543565b61089c565b6040516101e2929190612592565b60405180910390f35b61020560048036038101906102009190612543565b61097e565b005b610221600480360381019061021c9190612543565b610c8c565b60405161022f9291906125bb565b60405180910390f35b610252600480360381019061024d9190612543565b610d02565b6040516102609291906125bb565b60405180910390f35b610271610d78565b005b61028d60048036038101906102889190612428565b610d8c565b60405161029b9291906125bb565b60405180910390f35b6102be60048036038101906102b991906125e4565b610ece565b005b6102da60048036038101906102d59190612428565b610f83565b005b6102e4611024565b6040516102f19190612624565b60405180910390f35b610314600480360381019061030f9190612428565b61104d565b005b610330600480360381019061032b9190612543565b6110ea565b60405161033d919061246e565b60405180910390f35b610360600480360381019061035b9190612543565b611205565b60405161036d919061246e565b60405180910390f35b610390600480360381019061038b9190612428565b611260565b60405161039d919061246e565b60405180910390f35b6103c060048036038101906103bb9190612428565b6112a9565b6040516103ce9291906125bb565b60405180910390f35b6103f160048036038101906103ec919061263f565b611422565b6040516103fe919061246e565b60405180910390f35b610421600480360381019061041c919061271c565b6114bf565b005b61043d60048036038101906104389190612428565b6114f1565b005b61045960048036038101906104549190612543565b611575565b005b61047560048036038101906104709190612428565b6117bd565b005b610491600480360381019061048c919061288d565b611851565b005b60006104dc600460008473ffffffffffffffffffffffffffffffffffffffff1673ffffffffffffffffffffffffffffffffffffffff168152602001908152602001600020611a39565b9050919050565b6104eb611a4e565b6001600a60008573ffffffffffffffffffffffffffffffffffffffff1673ffffffffffffffffffffffffffffffffffffffff16815260200190815260200160002060006101000a81548160ff02191690831515021790555081600860008573ffffffffffffffffffffffffffffffffffffffff1673ffffffffffffffffffffffffffffffffffffffff1681526020019081526020016000208190555080600c60008573ffffffffffffffffffffffffffffffffffffffff1673ffffffffffffffffffffffffffffffffffffffff16815260200190815260200160002060006101000a81548162ffffff021916908362ffffff1602179055508273ffffffffffffffffffffffffffffffffffffffff1663095ea7b3307fffffffffffffffffffffffffffffffffffffffffffffffffffffffffffffffff6040518363ffffffff1660e01b815260040161063e929190612592565b602060405180830381600087803b15801561065857600080fd5b505af115801561066c573d6000803e3d6000fd5b505050506040513d601f19601f82011682018060405250810190610690919061295e565b507fd4011f07f4f4ae2af9de3a86ba50cfab1ebeae2b2fb201f1490b1cb797ea9a168360016040516106c392919061299a565b60405180910390a1505050565b6106d8611a4e565b6001600b60008573ffffffffffffffffffffffffffffffffffffffff1673ffffffffffffffffffffffffffffffffffffffff16815260200190815260200160002060006101000a81548160ff02191690831515021790555081600960008573ffffffffffffffffffffffffffffffffffffffff1673ffffffffffffffffffffffffffffffffffffffff1681526020019081526020016000208190555080600c60008573ffffffffffffffffffffffffffffffffffffffff1673ffffffffffffffffffffffffffffffffffffffff16815260200190815260200160002060006101000a81548162ffffff021916908362ffffff160217905550600160009054906101000a900473ffffffffffffffffffffffffffffffffffffffff1673ffffffffffffffffffffffffffffffffffffffff166380b2edd8846040518263ffffffff1660e01b815260040161082b9190612624565b600060405180830381600087803b15801561084557600080fd5b505af1158015610859573d6000803e3d6000fd5b505050507ff6a4d7d5ebebaebbca577babe4cae62e1e9b8db98ab0caf830f604a7189414f983600160405161088f92919061299a565b60405180910390a1505050565b60008060006108f284600460008873ffffffffffffffffffffffffffffffffffffffff1673ffffffffffffffffffffffffffffffffffffffff168152602001908152602001600020611acc90919063ffffffff16565b905080600360008773ffffffffffffffffffffffffffffffffffffffff1673ffffffffffffffffffffffffffffffffffffffff16815260200190815260200160002060008373ffffffffffffffffffffffffffffffffffffffff1673ffffffffffffffffffffffffffffffffffffffff1681526020019081526020016000205492509250509250929050565b600a60008373ffffffffffffffffffffffffffffffffffffffff1673ffffffffffffffffffffffffffffffffffffffff16815260200190815260200160002060009054906101000a900460ff16610a0a576040517f08c379a0000000000000000000000000000000000000000000000000000000008152600401610a0190612a20565b60405180910390fd5b80600360003373ffffffffffffffffffffffffffffffffffffffff1673ffffffffffffffffffffffffffffffffffffffff16815260200190815260200160002060008473ffffffffffffffffffffffffffffffffffffffff1673ffffffffffffffffffffffffffffffffffffffff1681526020019081526020016000206000828254610a969190612a6f565b92505081905550610aee82600460003373ffffffffffffffffffffffffffffffffffffffff1673ffffffffffffffffffffffffffffffffffffffff168152602001908152602001600020611ae690919063ffffffff16565b50808273ffffffffffffffffffffffffffffffffffffffff166370a08231336040518263ffffffff1660e01b8152600401610b299190612624565b60206040518083038186803b158015610b4157600080fd5b505afa158015610b55573d6000803e3d6000fd5b505050506040513d601f19601f82011682018060405250810190610b799190612ada565b1015610bba576040517f08c379a0000000000000000000000000000000000000000000000000000000008152600401610bb190612b53565b60405180910390fd5b8173ffffffffffffffffffffffffffffffffffffffff166323b872dd3330846040518463ffffffff1660e01b8152600401610bf793929190612b73565b602060405180830381600087803b158015610c1157600080fd5b505af1158015610c25573d6000803e3d6000fd5b505050506040513d601f19601f82011682018060405250810190610c49919061295e565b610c88576040517f08c379a0000000000000000000000000000000000000000000000000000000008152600401610c7f90612bf6565b60405180910390fd5b5050565b6000806000610c9b85856110ea565b905080600960008773ffffffffffffffffffffffffffffffffffffffff1673ffffffffffffffffffffffffffffffffffffffff1681526020019081526020016000205461271083610cec9190612c16565b610cf69190612c9f565b92509250509250929050565b6000806000610d1185856110ea565b905080612710600860008873ffffffffffffffffffffffffffffffffffffffff1673ffffffffffffffffffffffffffffffffffffffff1681526020019081526020016000205483610d629190612c16565b610d6c9190612c9f565b92509250509250929050565b610d80611a4e565b610d8a6000611b16565b565b6000806000610d9a84611260565b905060008060005b83811015610ebf576000610db68883611205565b90506000806000600160009054906101000a900473ffffffffffffffffffffffffffffffffffffffff1673ffffffffffffffffffffffffffffffffffffffff1663bd5634a3856040518263ffffffff1660e01b8152600401610e18919061246e565b60606040518083038186803b158015610e3057600080fd5b505afa158015610e44573d6000803e3d6000fd5b505050506040513d601f19601f82011682018060405250810190610e689190612ce5565b925092509250600080610e86858486610e819190612a6f565b610c8c565b915091508189610e969190612a6f565b98508088610ea49190612a6f565b97505050505050508080610eb790612d38565b915050610da2565b50818194509450505050915091565b81600560003373ffffffffffffffffffffffffffffffffffffffff1673ffffffffffffffffffffffffffffffffffffffff1681526020019081526020016000206000600760008681526020019081526020016000205481526020019081526020016000205414610f73576040517f08c379a0000000000000000000000000000000000000000000000000000000008152600401610f6a90612dcd565b60405180910390fd5b610f7f33338484611bda565b5050565b6000610f9182600080611422565b90506127108110610fd7576040517f08c379a0000000000000000000000000000000000000000000000000000000008152600401610fce90612e39565b60405180910390fd5b6000610fe283611260565b905060005b8181101561101e576000610ffb8583611205565b905061100a8533836000611bda565b50808061101690612d38565b915050610fe7565b50505050565b60008060009054906101000a900473ffffffffffffffffffffffffffffffffffffffff16905090565b611055611a4e565b6000600a60008373ffffffffffffffffffffffffffffffffffffffff1673ffffffffffffffffffffffffffffffffffffffff16815260200190815260200160002060006101000a81548160ff0219169083151502179055507fd4011f07f4f4ae2af9de3a86ba50cfab1ebeae2b2fb201f1490b1cb797ea9a168160006040516110df92919061299a565b60405180910390a150565b6000600260009054906101000a900473ffffffffffffffffffffffffffffffffffffffff1673ffffffffffffffffffffffffffffffffffffffff1663d8eaf79e8385600c60008873ffffffffffffffffffffffffffffffffffffffff1673ffffffffffffffffffffffffffffffffffffffff16815260200190815260200160002060009054906101000a900462ffffff16600d60009054906101000a900463ffffffff166040518563ffffffff1660e01b81526004016111ad9493929190612e87565b60206040518083038186803b1580156111c557600080fd5b505afa1580156111d9573d6000803e3d6000fd5b505050506040513d601f19601f820116820180604052508101906111fd9190612ada565b905092915050565b6000600560008473ffffffffffffffffffffffffffffffffffffffff1673ffffffffffffffffffffffffffffffffffffffff168152602001908152602001600020600083815260200190815260200160002054905092915050565b6000600660008373ffffffffffffffffffffffffffffffffffffffff1673ffffffffffffffffffffffffffffffffffffffff168152602001908152602001600020549050919050565b60008060008060005b6112f9600460008873ffffffffffffffffffffffffffffffffffffffff1673ffffffffffffffffffffffffffffffffffffffff168152602001908152602001600020611a39565b81101561141457600061135382600460008a73ffffffffffffffffffffffffffffffffffffffff1673ffffffffffffffffffffffffffffffffffffffff168152602001908152602001600020611acc90919063ffffffff16565b90506000806113de83600360008c73ffffffffffffffffffffffffffffffffffffffff1673ffffffffffffffffffffffffffffffffffffffff16815260200190815260200160002060008673ffffffffffffffffffffffffffffffffffffffff1673ffffffffffffffffffffffffffffffffffffffff16815260200190815260200160002054610d02565b9150915081866113ee9190612a6f565b955080856113fc9190612a6f565b9450505050808061140c90612d38565b9150506112b2565b508181935093505050915091565b60008061142e856112a9565b915050600061143c86610d8c565b91505060008511156114675760006114548587610c8c565b91505080826114639190612a6f565b9150505b600081111561149257806127108361147f9190612c16565b6114899190612c9f565b925050506114b8565b7fffffffffffffffffffffffffffffffffffffffffffffffffffffffffffffffff925050505b9392505050565b6114dc338660200160208101906114d69190612428565b84611c85565b6114ea858585858533611cde565b5050505050565b6114f9611a4e565b600073ffffffffffffffffffffffffffffffffffffffff168173ffffffffffffffffffffffffffffffffffffffff161415611569576040517f08c379a000000000000000000000000000000000000000000000000000000000815260040161156090612f3e565b60405180910390fd5b61157281611b16565b50565b600081600360003373ffffffffffffffffffffffffffffffffffffffff1673ffffffffffffffffffffffffffffffffffffffff16815260200190815260200160002060008573ffffffffffffffffffffffffffffffffffffffff1673ffffffffffffffffffffffffffffffffffffffff168152602001908152602001600020546115ff9190612f5e565b905081600360003373ffffffffffffffffffffffffffffffffffffffff1673ffffffffffffffffffffffffffffffffffffffff16815260200190815260200160002060008573ffffffffffffffffffffffffffffffffffffffff1673ffffffffffffffffffffffffffffffffffffffff1681526020019081526020016000208190555060008214156116de576116dc83600460003373ffffffffffffffffffffffffffffffffffffffff1673ffffffffffffffffffffffffffffffffffffffff168152602001908152602001600020611e9d90919063ffffffff16565b505b6116ea33600080611c85565b8273ffffffffffffffffffffffffffffffffffffffff166323b872dd3033846040518463ffffffff1660e01b815260040161172793929190612b73565b602060405180830381600087803b15801561174157600080fd5b505af1158015611755573d6000803e3d6000fd5b505050506040513d601f19601f82011682018060405250810190611779919061295e565b6117b8576040517f08c379a00000000000000000000000000000000000000000000000000000000081526004016117af90612bf6565b60405180910390fd5b505050565b6117c5611a4e565b600b60008273ffffffffffffffffffffffffffffffffffffffff1673ffffffffffffffffffffffffffffffffffffffff16815260200190815260200160002060006101000a81549060ff02191690557ff6a4d7d5ebebaebbca577babe4cae62e1e9b8db98ab0caf830f604a7189414f981600060405161184692919061299a565b60405180910390a150565b60008787600081811061186757611866612f92565b5b9050610140020160200160208101906118809190612428565b905061188d338286611c85565b600084905060005b89899050811080156118a75750600082115b156119dc578273ffffffffffffffffffffffffffffffffffffffff168a8a838181106118d6576118d5612f92565b5b9050610140020160200160208101906118ef9190612428565b73ffffffffffffffffffffffffffffffffffffffff1614611945576040517f08c379a000000000000000000000000000000000000000000000000000000000815260040161193c9061300d565b60405180910390fd5b600061196e838c8c8581811061195e5761195d612f92565b5b9050610140020160a00135611ecd565b90506119ba8b8b8481811061198657611985612f92565b5b905061014002018a8a858181106119a05761199f612f92565b5b90506020028101906119b2919061303c565b8a8a33611cde565b80836119c69190612f5e565b92505080806119d490612d38565b915050611895565b50600015158315151415611a2e5760008114611a2d576040517f08c379a0000000000000000000000000000000000000000000000000000000008152600401611a24906130eb565b60405180910390fd5b5b505050505050505050565b6000611a4782600001611ee7565b9050919050565b611a56611ef8565b73ffffffffffffffffffffffffffffffffffffffff16611a74611024565b73ffffffffffffffffffffffffffffffffffffffff1614611aca576040517f08c379a0000000000000000000000000000000000000000000000000000000008152600401611ac190613157565b60405180910390fd5b565b6000611adb8360000183611f00565b60001c905092915050565b6000611b0e836000018373ffffffffffffffffffffffffffffffffffffffff1660001b611f2b565b905092915050565b60008060009054906101000a900473ffffffffffffffffffffffffffffffffffffffff169050816000806101000a81548173ffffffffffffffffffffffffffffffffffffffff021916908373ffffffffffffffffffffffffffffffffffffffff1602179055508173ffffffffffffffffffffffffffffffffffffffff168173ffffffffffffffffffffffffffffffffffffffff167f8be0079c531659141344cd1fd0a4f28419497f9722a3daafe3b4186f6b6457e060405160405180910390a35050565b6000811415611bee57611bed8483611f9b565b5b600160009054906101000a900473ffffffffffffffffffffffffffffffffffffffff1673ffffffffffffffffffffffffffffffffffffffff166380a5d3d88484846040518463ffffffff1660e01b8152600401611c4d93929190613177565b600060405180830381600087803b158015611c6757600080fd5b505af1158015611c7b573d6000803e3d6000fd5b5050505050505050565b6000611c92848385611422565b90506127108111611cd8576040517f08c379a0000000000000000000000000000000000000000000000000000000008152600401611ccf906131fa565b60405180910390fd5b50505050565b600b6000876020016020810190611cf59190612428565b73ffffffffffffffffffffffffffffffffffffffff1673ffffffffffffffffffffffffffffffffffffffff16815260200190815260200160002060009054906101000a900460ff16611d7c576040517f08c379a0000000000000000000000000000000000000000000000000000000008152600401611d7390613266565b60405180910390fd5b6000600160009054906101000a900473ffffffffffffffffffffffffffffffffffffffff1673ffffffffffffffffffffffffffffffffffffffff166364f900538888888888886040518763ffffffff1660e01b8152600401611de39695949392919061344c565b602060405180830381600087803b158015611dfd57600080fd5b505af1158015611e11573d6000803e3d6000fd5b505050506040513d601f19601f82011682018060405250810190611e359190612ada565b9050611e418282612183565b7f168ebee18b2999b101884a111b0035b3d66e0263a9581a40a4ae89885f258ef9876000016020810190611e759190612428565b88604001358385604051611e8c94939291906134ad565b60405180910390a150505050505050565b6000611ec5836000018373ffffffffffffffffffffffffffffffffffffffff1660001b612289565b905092915050565b600081831015611edd5782611edf565b815b905092915050565b600081600001805490509050919050565b600033905090565b6000826000018281548110611f1857611f17612f92565b5b9060005260206000200154905092915050565b6000611f37838361239d565b611f90578260000182908060018154018082558091505060019003906000526020600020016000909190919091505582600001805490508360010160008481526020019081526020016000208190555060019050611f95565b600090505b92915050565b60006001600660008573ffffffffffffffffffffffffffffffffffffffff1673ffffffffffffffffffffffffffffffffffffffff16815260200190815260200160002054611fe99190612f5e565b905080600660008573ffffffffffffffffffffffffffffffffffffffff1673ffffffffffffffffffffffffffffffffffffffff16815260200190815260200160002081905550600060076000848152602001908152602001600020549050818114612112576000600560008673ffffffffffffffffffffffffffffffffffffffff1673ffffffffffffffffffffffffffffffffffffffff168152602001908152602001600020600084815260200190815260200160002054905080600560008773ffffffffffffffffffffffffffffffffffffffff1673ffffffffffffffffffffffffffffffffffffffff168152602001908152602001600020600084815260200190815260200160002081905550816007600083815260200190815260200160002081905550505b6007600084815260200190815260200160002060009055600560008573ffffffffffffffffffffffffffffffffffffffff1673ffffffffffffffffffffffffffffffffffffffff16815260200190815260200160002060008381526020019081526020016000206000905550505050565b6000600660008473ffffffffffffffffffffffffffffffffffffffff1673ffffffffffffffffffffffffffffffffffffffff16815260200190815260200160002054905081600560008573ffffffffffffffffffffffffffffffffffffffff1673ffffffffffffffffffffffffffffffffffffffff1681526020019081526020016000206000838152602001908152602001600020819055508060076000848152602001908152602001600020819055506001816122419190612a6f565b600660008573ffffffffffffffffffffffffffffffffffffffff1673ffffffffffffffffffffffffffffffffffffffff16815260200190815260200160002081905550505050565b600080836001016000848152602001908152602001600020549050600081146123915760006001826122bb9190612f5e565b90506000600186600001805490506122d39190612f5e565b90508181146123425760008660000182815481106122f4576122f3612f92565b5b906000526020600020015490508087600001848154811061231857612317612f92565b5b90600052602060002001819055508387600101600083815260200190815260200160002081905550505b85600001805480612356576123556134f2565b5b600190038181906000526020600020016000905590558560010160008681526020019081526020016000206000905560019350505050612397565b60009150505b92915050565b600080836001016000848152602001908152602001600020541415905092915050565b600080fd5b600080fd5b600073ffffffffffffffffffffffffffffffffffffffff82169050919050565b60006123f5826123ca565b9050919050565b612405816123ea565b811461241057600080fd5b50565b600081359050612422816123fc565b92915050565b60006020828403121561243e5761243d6123c0565b5b600061244c84828501612413565b91505092915050565b6000819050919050565b61246881612455565b82525050565b6000602082019050612483600083018461245f565b92915050565b61249281612455565b811461249d57600080fd5b50565b6000813590506124af81612489565b92915050565b600062ffffff82169050919050565b6124cd816124b5565b81146124d857600080fd5b50565b6000813590506124ea816124c4565b92915050565b600080600060608486031215612509576125086123c0565b5b600061251786828701612413565b9350506020612528868287016124a0565b9250506040612539868287016124db565b9150509250925092565b6000806040838503121561255a576125596123c0565b5b600061256885828601612413565b9250506020612579858286016124a0565b9150509250929050565b61258c816123ea565b82525050565b60006040820190506125a76000830185612583565b6125b4602083018461245f565b9392505050565b60006040820190506125d0600083018561245f565b6125dd602083018461245f565b9392505050565b600080604083850312156125fb576125fa6123c0565b5b6000612609858286016124a0565b925050602061261a858286016124a0565b9150509250929050565b60006020820190506126396000830184612583565b92915050565b600080600060608486031215612658576126576123c0565b5b600061266686828701612413565b9350506020612677868287016124a0565b925050604061268886828701612413565b9150509250925092565b600080fd5b600061014082840312156126ae576126ad612692565b5b81905092915050565b600080fd5b600080fd5b600080fd5b60008083601f8401126126dc576126db6126b7565b5b8235905067ffffffffffffffff8111156126f9576126f86126bc565b5b602083019150836001820283011115612715576127146126c1565b5b9250929050565b60008060008060006101a08688031215612739576127386123c0565b5b600061274788828901612697565b95505061014086013567ffffffffffffffff811115612769576127686123c5565b5b612775888289016126c6565b9450945050610160612789888289016124a0565b92505061018061279b888289016124a0565b9150509295509295909350565b60008083601f8401126127be576127bd6126b7565b5b8235905067ffffffffffffffff8111156127db576127da6126bc565b5b602083019150836101408202830111156127f8576127f76126c1565b5b9250929050565b60008083601f840112612815576128146126b7565b5b8235905067ffffffffffffffff811115612832576128316126bc565b5b60208301915083602082028301111561284e5761284d6126c1565b5b9250929050565b60008115159050919050565b61286a81612855565b811461287557600080fd5b50565b60008135905061288781612861565b92915050565b600080600080600080600060a0888a0312156128ac576128ab6123c0565b5b600088013567ffffffffffffffff8111156128ca576128c96123c5565b5b6128d68a828b016127a8565b9750975050602088013567ffffffffffffffff8111156128f9576128f86123c5565b5b6129058a828b016127ff565b955095505060406129188a828b016124a0565b93505060606129298a828b016124a0565b925050608061293a8a828b01612878565b91505092959891949750929550565b60008151905061295881612861565b92915050565b600060208284031215612974576129736123c0565b5b600061298284828501612949565b91505092915050565b61299481612855565b82525050565b60006040820190506129af6000830185612583565b6129bc602083018461298b565b9392505050565b600082825260208201905092915050565b7f636f6c6c61746572616c20746f6b656e206e6f7420616c6c6f77656400000000600082015250565b6000612a0a601c836129c3565b9150612a15826129d4565b602082019050919050565b60006020820190508181036000830152612a39816129fd565b9050919050565b7f4e487b7100000000000000000000000000000000000000000000000000000000600052601160045260246000fd5b6000612a7a82612455565b9150612a8583612455565b9250827fffffffffffffffffffffffffffffffffffffffffffffffffffffffffffffffff03821115612aba57612ab9612a40565b5b828201905092915050565b600081519050612ad481612489565b92915050565b600060208284031215612af057612aef6123c0565b5b6000612afe84828501612ac5565b91505092915050565b7f496e73756666696369656e742062616c616e6365000000000000000000000000600082015250565b6000612b3d6014836129c3565b9150612b4882612b07565b602082019050919050565b60006020820190508181036000830152612b6c81612b30565b9050919050565b6000606082019050612b886000830186612583565b612b956020830185612583565b612ba2604083018461245f565b949350505050565b7f7472616e73666572206661696c65640000000000000000000000000000000000600082015250565b6000612be0600f836129c3565b9150612beb82612baa565b602082019050919050565b60006020820190508181036000830152612c0f81612bd3565b9050919050565b6000612c2182612455565b9150612c2c83612455565b9250817fffffffffffffffffffffffffffffffffffffffffffffffffffffffffffffffff0483118215151615612c6557612c64612a40565b5b828202905092915050565b7f4e487b7100000000000000000000000000000000000000000000000000000000600052601260045260246000fd5b6000612caa82612455565b9150612cb583612455565b925082612cc557612cc4612c70565b5b828204905092915050565b600081519050612cdf816123fc565b92915050565b600080600060608486031215612cfe57612cfd6123c0565b5b6000612d0c86828701612cd0565b9350506020612d1d86828701612ac5565b9250506040612d2e86828701612ac5565b9150509250925092565b6000612d4382612455565b91507fffffffffffffffffffffffffffffffffffffffffffffffffffffffffffffffff821415612d7657612d75612a40565b5b600182019050919050565b7f6d73672e73656e646572206e6f74206f776e6572206f66206c6f616e00000000600082015250565b6000612db7601c836129c3565b9150612dc282612d81565b602082019050919050565b60006020820190508181036000830152612de681612daa565b9050919050565b7f6163636f756e74206973206865616c7468790000000000000000000000000000600082015250565b6000612e236012836129c3565b9150612e2e82612ded565b602082019050919050565b60006020820190508181036000830152612e5281612e16565b9050919050565b612e62816124b5565b82525050565b600063ffffffff82169050919050565b612e8181612e68565b82525050565b6000608082019050612e9c600083018761245f565b612ea96020830186612583565b612eb66040830185612e59565b612ec36060830184612e78565b95945050505050565b7f4f776e61626c653a206e6577206f776e657220697320746865207a65726f206160008201527f6464726573730000000000000000000000000000000000000000000000000000602082015250565b6000612f286026836129c3565b9150612f3382612ecc565b604082019050919050565b60006020820190508181036000830152612f5781612f1b565b9050919050565b6000612f6982612455565b9150612f7483612455565b925082821015612f8757612f86612a40565b5b828203905092915050565b7f4e487b7100000000000000000000000000000000000000000000000000000000600052603260045260246000fd5b7f6f6666657273206861766520646966666572656e7420746f6b656e7300000000600082015250565b6000612ff7601c836129c3565b915061300282612fc1565b602082019050919050565b6000602082019050818103600083015261302681612fea565b9050919050565b600080fd5b600080fd5b600080fd5b600080833560016020038436030381126130595761305861302d565b5b80840192508235915067ffffffffffffffff82111561307b5761307a613032565b5b60208301925060018202360383131561309757613096613037565b5b509250929050565b7f636f756c64206e6f7420626f72726f7720656e6f756768000000000000000000600082015250565b60006130d56017836129c3565b91506130e08261309f565b602082019050919050565b60006020820190508181036000830152613104816130c8565b9050919050565b7f4f776e61626c653a2063616c6c6572206973206e6f7420746865206f776e6572600082015250565b60006131416020836129c3565b915061314c8261310b565b602082019050919050565b6000602082019050818103600083015261317081613134565b9050919050565b600060608201905061318c6000830186612583565b613199602083018561245f565b6131a6604083018461245f565b949350505050565b7f6865616c746820666163746f7220746f6f206c6f770000000000000000000000600082015250565b60006131e46015836129c3565b91506131ef826131ae565b602082019050919050565b60006020820190508181036000830152613213816131d7565b9050919050565b7f737570706c7920746f6b656e206e6f7420616c6c6f7765640000000000000000600082015250565b60006132506018836129c3565b915061325b8261321a565b602082019050919050565b6000602082019050818103600083015261327f81613243565b9050919050565b60006132956020840184612413565b905092915050565b6132a6816123ea565b82525050565b60006132bb60208401846124a0565b905092915050565b6132cc81612455565b82525050565b61014082016132e46000830183613286565b6132f1600085018261329d565b506132ff6020830183613286565b61330c602085018261329d565b5061331a60408301836132ac565b61332760408501826132c3565b5061333560608301836132ac565b61334260608501826132c3565b5061335060808301836132ac565b61335d60808501826132c3565b5061336b60a08301836132ac565b61337860a08501826132c3565b5061338660c08301836132ac565b61339360c08501826132c3565b506133a160e08301836132ac565b6133ae60e08501826132c3565b506133bd6101008301836132ac565b6133cb6101008501826132c3565b506133da6101208301836132ac565b6133e86101208501826132c3565b50505050565b600082825260208201905092915050565b82818337600083830152505050565b6000601f19601f8301169050919050565b600061342b83856133ee565b93506134388385846133ff565b6134418361340e565b840190509392505050565b60006101c08201905061346260008301896132d2565b81810361014083015261347681878961341f565b905061348661016083018661245f565b61349461018083018561245f565b6134a26101a0830184612583565b979650505050505050565b60006080820190506134c26000830187612583565b6134cf602083018661245f565b6134dc604083018561245f565b6134e96060830184612583565b95945050505050565b7f4e487b7100000000000000000000000000000000000000000000000000000000600052603160045260246000fdfea26469706673582212209c95bbfefb408b98cbd289605d713f4948dc15af364c9400da6044d4f9a3b34764736f6c63430008090033",
  "linkReferences": {},
  "deployedLinkReferences": {}
}